{
  "_format": "hh-sol-artifact-1",
  "contractName": "TEEValidator",
  "sourceName": "contracts/validators/TEEValidator.sol",
  "abi": [
    {
      "inputs": [
        {
          "internalType": "address",
          "name": "p256VerifierAddress",
          "type": "address"
        }
      ],
      "stateMutability": "nonpayable",
      "type": "constructor"
    },
    {
      "inputs": [
        {
          "internalType": "bytes4",
          "name": "interfaceId",
          "type": "bytes4"
        }
      ],
      "name": "supportsInterface",
      "outputs": [
        {
          "internalType": "bool",
          "name": "",
          "type": "bool"
        }
      ],
      "stateMutability": "pure",
      "type": "function"
    },
    {
      "inputs": [
        {
          "internalType": "bytes32",
          "name": "signedHash",
          "type": "bytes32"
        },
        {
          "internalType": "bytes",
          "name": "signature",
          "type": "bytes"
        },
        {
          "internalType": "bytes32[2]",
          "name": "pubKey",
          "type": "bytes32[2]"
        }
      ],
      "name": "validateSignature",
      "outputs": [
        {
          "internalType": "bool",
          "name": "valid",
          "type": "bool"
        }
      ],
      "stateMutability": "view",
      "type": "function"
    }
  ],
  "bytecode": "0x60a03461006a57601f6103c538819003918201601f19168301916001600160401b0383118484101761006f5780849260209460405283398101031261006a57516001600160a01b038116810361006a5760805260405161033f90816100868239608051816102a10152f35b600080fd5b634e487b7160e01b600052604160045260246000fdfe60806040526004361015610013575b600080fd5b6000803560e01c90816301ffc9a71461003e5750639074726b1461003657600080fd5b61000e610097565b34610094576020366003190112610094576004359063ffffffff60e01b82168092036100945750639074726b60e01b8114908115610083575b50151560805260206080f35b6301ffc9a760e01b14905081610077565b80fd5b503461000e57608036600319011261000e5767ffffffffffffffff60243581811161000e573660238201121561000e57806004013591821161000e57366024838301011161000e573660841161000e5761010c9160246100fa9201600435610150565b60405190151581529081906020820190565b0390f35b50634e487b7160e01b600052604160045260246000fd5b6040810190811067ffffffffffffffff82111761014357604052565b61014b610110565b604052565b9291810160408282031261000e5780601f8301121561000e576040519161017683610127565b82906040810192831161000e57905b8282106101d2575050506040519061019c82610127565b8193608436811161000e576044955b8187106101c25750506101bf939450610249565b90565b86358152602096870196016101ab565b8135815260209182019101610185565b3d156102445767ffffffffffffffff903d828111610237575b60405192601f8201601f19908116603f011684019081118482101761022a575b60405282523d6000602084013e565b610232610110565b61021b565b61023f610110565b6101fb565b606090565b60009291839260208251920151906020815191015191604051936020850195865260408501526060840152608083015260a082015260a0815260c0810181811067ffffffffffffffff8211176102fc575b60405251907f00000000000000000000000000000000000000000000000000000000000000005afa6102ca6101e2565b90806102f2575b6102dc575b50600090565b602001516001146102ed57386102d6565b600190565b50805115156102d1565b610304610110565b61029a56fea2646970667358221220ae0a09d75d496d6701ae39160b80944f73cf8f448fefd1ef8883aa8bdf186e0264736f6c63430008110033",
  "linkReferences": {},
  "deployedLinkReferences": {}
}